{
  "_format": "hh-sol-artifact-1",
  "contractName": "Vroombuddy",
  "sourceName": "contracts/Vroombuddy.sol",
  "abi": [
    {
      "inputs": [
        {
          "internalType": "address",
          "name": "_initialOwner",
          "type": "address"
        },
        {
          "internalType": "address",
          "name": "_usdcAddress",
          "type": "address"
        }
      ],
      "stateMutability": "nonpayable",
      "type": "constructor"
    },
    {
      "inputs": [
        {
          "internalType": "address",
          "name": "owner",
          "type": "address"
        }
      ],
      "name": "OwnableInvalidOwner",
      "type": "error"
    },
    {
      "inputs": [
        {
          "internalType": "address",
          "name": "account",
          "type": "address"
        }
      ],
      "name": "OwnableUnauthorizedAccount",
      "type": "error"
    },
    {
      "anonymous": false,
      "inputs": [
        {
          "indexed": true,
          "internalType": "address",
          "name": "user",
          "type": "address"
        },
        {
          "indexed": false,
          "internalType": "uint256",
          "name": "amount",
          "type": "uint256"
        }
      ],
      "name": "ClaimAllowed",
      "type": "event"
    },
    {
      "anonymous": false,
      "inputs": [
        {
          "indexed": true,
          "internalType": "address",
          "name": "user",
          "type": "address"
        },
        {
          "indexed": false,
          "internalType": "uint256",
          "name": "amount",
          "type": "uint256"
        }
      ],
      "name": "InsuranceClaimed",
      "type": "event"
    },
    {
      "anonymous": false,
      "inputs": [
        {
          "indexed": true,
          "internalType": "address",
          "name": "user",
          "type": "address"
        },
        {
          "indexed": false,
          "internalType": "enum Vroombuddy.InsuranceType",
          "name": "insuranceType",
          "type": "uint8"
        }
      ],
      "name": "InsuranceJoined",
      "type": "event"
    },
    {
      "anonymous": false,
      "inputs": [
        {
          "indexed": true,
          "internalType": "address",
          "name": "previousOwner",
          "type": "address"
        },
        {
          "indexed": true,
          "internalType": "address",
          "name": "newOwner",
          "type": "address"
        }
      ],
      "name": "OwnershipTransferred",
      "type": "event"
    },
    {
      "anonymous": false,
      "inputs": [
        {
          "indexed": true,
          "internalType": "address",
          "name": "user",
          "type": "address"
        },
        {
          "indexed": false,
          "internalType": "uint256",
          "name": "amount",
          "type": "uint256"
        }
      ],
      "name": "PremiumPaid",
      "type": "event"
    },
    {
      "inputs": [
        {
          "internalType": "uint256",
          "name": "amount",
          "type": "uint256"
        }
      ],
      "name": "addFund",
      "outputs": [],
      "stateMutability": "nonpayable",
      "type": "function"
    },
    {
      "inputs": [
        {
          "internalType": "address",
          "name": "user",
          "type": "address"
        },
        {
          "internalType": "uint256",
          "name": "amount",
          "type": "uint256"
        }
      ],
      "name": "allowClaim",
      "outputs": [],
      "stateMutability": "nonpayable",
      "type": "function"
    },
    {
      "inputs": [
        {
          "internalType": "address",
          "name": "user",
          "type": "address"
        }
      ],
      "name": "autoDeductPremium",
      "outputs": [],
      "stateMutability": "nonpayable",
      "type": "function"
    },
    {
      "inputs": [
        {
          "internalType": "address",
          "name": "",
          "type": "address"
        }
      ],
      "name": "balances",
      "outputs": [
        {
          "internalType": "uint256",
          "name": "",
          "type": "uint256"
        }
      ],
      "stateMutability": "view",
      "type": "function"
    },
    {
      "inputs": [],
      "name": "claimInsurance",
      "outputs": [],
      "stateMutability": "nonpayable",
      "type": "function"
    },
    {
      "inputs": [],
      "name": "fullCoverPremium",
      "outputs": [
        {
          "internalType": "uint256",
          "name": "",
          "type": "uint256"
        }
      ],
      "stateMutability": "view",
      "type": "function"
    },
    {
      "inputs": [
        {
          "internalType": "enum Vroombuddy.InsuranceType",
          "name": "insuranceType",
          "type": "uint8"
        }
      ],
      "name": "getPremiumAmount",
      "outputs": [
        {
          "internalType": "uint256",
          "name": "",
          "type": "uint256"
        }
      ],
      "stateMutability": "view",
      "type": "function"
    },
    {
      "inputs": [
        {
          "internalType": "address",
          "name": "user",
          "type": "address"
        }
      ],
      "name": "isClaimable",
      "outputs": [
        {
          "internalType": "bool",
          "name": "",
          "type": "bool"
        }
      ],
      "stateMutability": "view",
      "type": "function"
    },
    {
      "inputs": [
        {
          "internalType": "enum Vroombuddy.InsuranceType",
          "name": "insuranceType",
          "type": "uint8"
        }
      ],
      "name": "joinInsurance",
      "outputs": [],
      "stateMutability": "nonpayable",
      "type": "function"
    },
    {
      "inputs": [],
      "name": "owner",
      "outputs": [
        {
          "internalType": "address",
          "name": "",
          "type": "address"
        }
      ],
      "stateMutability": "view",
      "type": "function"
    },
    {
      "inputs": [],
      "name": "payPremium",
      "outputs": [],
      "stateMutability": "nonpayable",
      "type": "function"
    },
    {
      "inputs": [
        {
          "internalType": "address",
          "name": "",
          "type": "address"
        }
      ],
      "name": "policyHolders",
      "outputs": [
        {
          "internalType": "enum Vroombuddy.InsuranceType",
          "name": "insuranceType",
          "type": "uint8"
        },
        {
          "internalType": "uint256",
          "name": "lastPaymentTime",
          "type": "uint256"
        },
        {
          "internalType": "uint256",
          "name": "claimableAmount",
          "type": "uint256"
        }
      ],
      "stateMutability": "view",
      "type": "function"
    },
    {
      "inputs": [],
      "name": "premiumPremium",
      "outputs": [
        {
          "internalType": "uint256",
          "name": "",
          "type": "uint256"
        }
      ],
      "stateMutability": "view",
      "type": "function"
    },
    {
      "inputs": [],
      "name": "renounceOwnership",
      "outputs": [],
      "stateMutability": "nonpayable",
      "type": "function"
    },
    {
      "inputs": [],
      "name": "standardPremium",
      "outputs": [
        {
          "internalType": "uint256",
          "name": "",
          "type": "uint256"
        }
      ],
      "stateMutability": "view",
      "type": "function"
    },
    {
      "inputs": [
        {
          "internalType": "address",
          "name": "newOwner",
          "type": "address"
        }
      ],
      "name": "transferOwnership",
      "outputs": [],
      "stateMutability": "nonpayable",
      "type": "function"
    },
    {
      "inputs": [],
      "name": "usdc",
      "outputs": [
        {
          "internalType": "contract IERC20",
          "name": "",
          "type": "address"
        }
      ],
      "stateMutability": "view",
      "type": "function"
    }
  ],
  "bytecode": "0x60806040526302faf0806002556305f5e1006003556308f0d1806004553480156200002957600080fd5b5060405162001f6638038062001f6683398181016040528101906200004f91906200024e565b81600073ffffffffffffffffffffffffffffffffffffffff168173ffffffffffffffffffffffffffffffffffffffff1603620000c55760006040517f1e4fbdf7000000000000000000000000000000000000000000000000000000008152600401620000bc9190620002a6565b60405180910390fd5b620000d6816200012060201b60201c565b5080600160006101000a81548173ffffffffffffffffffffffffffffffffffffffff021916908373ffffffffffffffffffffffffffffffffffffffff1602179055505050620002c3565b60008060009054906101000a900473ffffffffffffffffffffffffffffffffffffffff169050816000806101000a81548173ffffffffffffffffffffffffffffffffffffffff021916908373ffffffffffffffffffffffffffffffffffffffff1602179055508173ffffffffffffffffffffffffffffffffffffffff168173ffffffffffffffffffffffffffffffffffffffff167f8be0079c531659141344cd1fd0a4f28419497f9722a3daafe3b4186f6b6457e060405160405180910390a35050565b600080fd5b600073ffffffffffffffffffffffffffffffffffffffff82169050919050565b60006200021682620001e9565b9050919050565b620002288162000209565b81146200023457600080fd5b50565b60008151905062000248816200021d565b92915050565b60008060408385031215620002685762000267620001e4565b5b6000620002788582860162000237565b92505060206200028b8582860162000237565b9150509250929050565b620002a08162000209565b82525050565b6000602082019050620002bd600083018462000295565b92915050565b611c9380620002d36000396000f3fe608060405234801561001057600080fd5b506004361061010b5760003560e01c806370b68a2a116100a2578063a31c134b11610071578063a31c134b14610282578063a75ac608146102a0578063c47aeed1146102aa578063d1699c74146102da578063f2fde38b146102f65761010b565b806370b68a2a1461020a578063715018a61461023c57806374ca32b8146102465780638da5cb5b146102645761010b565b8063292fec04116100de578063292fec041461019657806329c08ba2146101c6578063346c96e9146101d05780633e413bee146101ec5761010b565b80630a2f63cb14610110578063128f245b1461012c57806312eb9c251461014857806327e235e314610166575b600080fd5b61012a600480360381019061012591906113de565b610312565b005b61014660048036038101906101419190611430565b610610565b005b61015061082f565b60405161015d9190611476565b60405180910390f35b610180600480360381019061017b91906113de565b610835565b60405161018d9190611476565b60405180910390f35b6101b060048036038101906101ab91906113de565b61084d565b6040516101bd91906114ac565b60405180910390f35b6101ce6108a1565b005b6101ea60048036038101906101e591906114f3565b610ab6565b005b6101f4610bf8565b604051610201919061157f565b60405180910390f35b610224600480360381019061021f91906113de565b610c1e565b60405161023393929190611611565b60405180910390f35b610244610c55565b005b61024e610c69565b60405161025b9190611476565b60405180910390f35b61026c610c6f565b6040516102799190611657565b60405180910390f35b61028a610c98565b6040516102979190611476565b60405180910390f35b6102a8610c9e565b005b6102c460048036038101906102bf9190611430565b610fc4565b6040516102d19190611476565b60405180910390f35b6102f460048036038101906102ef9190611672565b611071565b005b610310600480360381019061030b91906113de565b6111a2565b005b61031a611228565b6000600560008373ffffffffffffffffffffffffffffffffffffffff1673ffffffffffffffffffffffffffffffffffffffff1681526020019081526020016000209050600060038111156103715761037061159a565b5b8160000160009054906101000a900460ff1660038111156103955761039461159a565b5b036103d5576040517f08c379a00000000000000000000000000000000000000000000000000000000081526004016103cc90611735565b60405180910390fd5b60006103f18260000160009054906101000a900460ff16610fc4565b905080600160009054906101000a900473ffffffffffffffffffffffffffffffffffffffff1673ffffffffffffffffffffffffffffffffffffffff1663dd62ed3e85306040518363ffffffff1660e01b8152600401610451929190611755565b602060405180830381865afa15801561046e573d6000803e3d6000fd5b505050506040513d601f19601f820116820180604052508101906104929190611793565b10156104d3576040517f08c379a00000000000000000000000000000000000000000000000000000000081526004016104ca90611832565b60405180910390fd5b600160009054906101000a900473ffffffffffffffffffffffffffffffffffffffff1673ffffffffffffffffffffffffffffffffffffffff166323b872dd8430846040518463ffffffff1660e01b815260040161053293929190611852565b6020604051808303816000875af1158015610551573d6000803e3d6000fd5b505050506040513d601f19601f8201168201806040525081019061057591906118b5565b6105b4576040517f08c379a00000000000000000000000000000000000000000000000000000000081526004016105ab9061192e565b60405180910390fd5b4282600101819055508273ffffffffffffffffffffffffffffffffffffffff167fa21795436a9f6a3b412fd6780f01a49907f2181e76e938496b0a41991d99b61c826040516106039190611476565b60405180910390a2505050565b600060038111156106245761062361159a565b5b8160038111156106375761063661159a565b5b03610677576040517f08c379a000000000000000000000000000000000000000000000000000000000815260040161066e9061199a565b60405180910390fd5b6000600381111561068b5761068a61159a565b5b600560003373ffffffffffffffffffffffffffffffffffffffff1673ffffffffffffffffffffffffffffffffffffffff16815260200190815260200160002060000160009054906101000a900460ff1660038111156106ed576106ec61159a565b5b1461072d576040517f08c379a000000000000000000000000000000000000000000000000000000000815260040161072490611a06565b60405180910390fd5b80600560003373ffffffffffffffffffffffffffffffffffffffff1673ffffffffffffffffffffffffffffffffffffffff16815260200190815260200160002060000160006101000a81548160ff021916908360038111156107925761079161159a565b5b021790555042600560003373ffffffffffffffffffffffffffffffffffffffff1673ffffffffffffffffffffffffffffffffffffffff168152602001908152602001600020600101819055503373ffffffffffffffffffffffffffffffffffffffff167f3d9ed82f0c64dcec00f29ea1e77415b1b326e5edbc14d6aea333757618abb78b826040516108249190611a26565b60405180910390a250565b60025481565b60066020528060005260406000206000915090505481565b600080600560008473ffffffffffffffffffffffffffffffffffffffff1673ffffffffffffffffffffffffffffffffffffffff16815260200190815260200160002090506000816002015411915050919050565b6000600560003373ffffffffffffffffffffffffffffffffffffffff1673ffffffffffffffffffffffffffffffffffffffff1681526020019081526020016000209050600060038111156108f8576108f761159a565b5b8160000160009054906101000a900460ff16600381111561091c5761091b61159a565b5b0361095c576040517f08c379a000000000000000000000000000000000000000000000000000000000815260040161095390611ab3565b60405180910390fd5b60006109788260000160009054906101000a900460ff16610fc4565b9050600160009054906101000a900473ffffffffffffffffffffffffffffffffffffffff1673ffffffffffffffffffffffffffffffffffffffff166323b872dd3330846040518463ffffffff1660e01b81526004016109d993929190611852565b6020604051808303816000875af11580156109f8573d6000803e3d6000fd5b505050506040513d601f19601f82011682018060405250810190610a1c91906118b5565b610a5b576040517f08c379a0000000000000000000000000000000000000000000000000000000008152600401610a529061192e565b60405180910390fd5b4282600101819055503373ffffffffffffffffffffffffffffffffffffffff167fa21795436a9f6a3b412fd6780f01a49907f2181e76e938496b0a41991d99b61c82604051610aaa9190611476565b60405180910390a25050565b610abe611228565b600160009054906101000a900473ffffffffffffffffffffffffffffffffffffffff1673ffffffffffffffffffffffffffffffffffffffff166323b872dd3330846040518463ffffffff1660e01b8152600401610b1d93929190611852565b6020604051808303816000875af1158015610b3c573d6000803e3d6000fd5b505050506040513d601f19601f82011682018060405250810190610b6091906118b5565b610b9f576040517f08c379a0000000000000000000000000000000000000000000000000000000008152600401610b969061192e565b60405180910390fd5b80600660003373ffffffffffffffffffffffffffffffffffffffff1673ffffffffffffffffffffffffffffffffffffffff1681526020019081526020016000206000828254610bee9190611b02565b9250508190555050565b600160009054906101000a900473ffffffffffffffffffffffffffffffffffffffff1681565b60056020528060005260406000206000915090508060000160009054906101000a900460ff16908060010154908060020154905083565b610c5d611228565b610c6760006112af565b565b60045481565b60008060009054906101000a900473ffffffffffffffffffffffffffffffffffffffff16905090565b60035481565b6000600560003373ffffffffffffffffffffffffffffffffffffffff1673ffffffffffffffffffffffffffffffffffffffff168152602001908152602001600020905060006003811115610cf557610cf461159a565b5b8160000160009054906101000a900460ff166003811115610d1957610d1861159a565b5b03610d59576040517f08c379a0000000000000000000000000000000000000000000000000000000008152600401610d5090611ab3565b60405180910390fd5b6000816002015411610da0576040517f08c379a0000000000000000000000000000000000000000000000000000000008152600401610d9790611ba8565b60405180910390fd5b600160009054906101000a900473ffffffffffffffffffffffffffffffffffffffff1673ffffffffffffffffffffffffffffffffffffffff166370a08231306040518263ffffffff1660e01b8152600401610dfb9190611657565b602060405180830381865afa158015610e18573d6000803e3d6000fd5b505050506040513d601f19601f82011682018060405250810190610e3c9190611793565b81600201541115610e82576040517f08c379a0000000000000000000000000000000000000000000000000000000008152600401610e7990611c14565b60405180910390fd5b60008160020181905550600160009054906101000a900473ffffffffffffffffffffffffffffffffffffffff1673ffffffffffffffffffffffffffffffffffffffff1663a9059cbb3383600201546040518363ffffffff1660e01b8152600401610eed929190611c34565b6020604051808303816000875af1158015610f0c573d6000803e3d6000fd5b505050506040513d601f19601f82011682018060405250810190610f3091906118b5565b610f6f576040517f08c379a0000000000000000000000000000000000000000000000000000000008152600401610f669061192e565b60405180910390fd5b3373ffffffffffffffffffffffffffffffffffffffff167fd1ecb6c48be11bc10ebf5b0c43978edf1b7fcbc3f5adb6a5ea66952d6a73f72a8260020154604051610fb99190611476565b60405180910390a250565b600060016003811115610fda57610fd961159a565b5b826003811115610fed57610fec61159a565b5b03610ffc57600254905061106c565b600260038111156110105761100f61159a565b5b8260038111156110235761102261159a565b5b0361103257600354905061106c565b6003808111156110455761104461159a565b5b8260038111156110585761105761159a565b5b0361106757600454905061106c565b600090505b919050565b611079611228565b6000600560008473ffffffffffffffffffffffffffffffffffffffff1673ffffffffffffffffffffffffffffffffffffffff1681526020019081526020016000209050600060038111156110d0576110cf61159a565b5b8160000160009054906101000a900460ff1660038111156110f4576110f361159a565b5b03611134576040517f08c379a000000000000000000000000000000000000000000000000000000000815260040161112b90611735565b60405180910390fd5b818160020160008282546111489190611b02565b925050819055508273ffffffffffffffffffffffffffffffffffffffff167f81debaa2833fb3b798d5e1fb13946546bd4331f3e8171cf70b58e852112d5670836040516111959190611476565b60405180910390a2505050565b6111aa611228565b600073ffffffffffffffffffffffffffffffffffffffff168173ffffffffffffffffffffffffffffffffffffffff160361121c5760006040517f1e4fbdf70000000000000000000000000000000000000000000000000000000081526004016112139190611657565b60405180910390fd5b611225816112af565b50565b611230611373565b73ffffffffffffffffffffffffffffffffffffffff1661124e610c6f565b73ffffffffffffffffffffffffffffffffffffffff16146112ad57611271611373565b6040517f118cdaa70000000000000000000000000000000000000000000000000000000081526004016112a49190611657565b60405180910390fd5b565b60008060009054906101000a900473ffffffffffffffffffffffffffffffffffffffff169050816000806101000a81548173ffffffffffffffffffffffffffffffffffffffff021916908373ffffffffffffffffffffffffffffffffffffffff1602179055508173ffffffffffffffffffffffffffffffffffffffff168173ffffffffffffffffffffffffffffffffffffffff167f8be0079c531659141344cd1fd0a4f28419497f9722a3daafe3b4186f6b6457e060405160405180910390a35050565b600033905090565b600080fd5b600073ffffffffffffffffffffffffffffffffffffffff82169050919050565b60006113ab82611380565b9050919050565b6113bb816113a0565b81146113c657600080fd5b50565b6000813590506113d8816113b2565b92915050565b6000602082840312156113f4576113f361137b565b5b6000611402848285016113c9565b91505092915050565b6004811061141857600080fd5b50565b60008135905061142a8161140b565b92915050565b6000602082840312156114465761144561137b565b5b60006114548482850161141b565b91505092915050565b6000819050919050565b6114708161145d565b82525050565b600060208201905061148b6000830184611467565b92915050565b60008115159050919050565b6114a681611491565b82525050565b60006020820190506114c1600083018461149d565b92915050565b6114d08161145d565b81146114db57600080fd5b50565b6000813590506114ed816114c7565b92915050565b6000602082840312156115095761150861137b565b5b6000611517848285016114de565b91505092915050565b6000819050919050565b600061154561154061153b84611380565b611520565b611380565b9050919050565b60006115578261152a565b9050919050565b60006115698261154c565b9050919050565b6115798161155e565b82525050565b60006020820190506115946000830184611570565b92915050565b7f4e487b7100000000000000000000000000000000000000000000000000000000600052602160045260246000fd5b600481106115da576115d961159a565b5b50565b60008190506115eb826115c9565b919050565b60006115fb826115dd565b9050919050565b61160b816115f0565b82525050565b60006060820190506116266000830186611602565b6116336020830185611467565b6116406040830184611467565b949350505050565b611651816113a0565b82525050565b600060208201905061166c6000830184611648565b92915050565b600080604083850312156116895761168861137b565b5b6000611697858286016113c9565b92505060206116a8858286016114de565b9150509250929050565b600082825260208201905092915050565b7f55736572206e6f7420656e726f6c6c656420696e20616e7920696e737572616e60008201527f6365207479706500000000000000000000000000000000000000000000000000602082015250565b600061171f6027836116b2565b915061172a826116c3565b604082019050919050565b6000602082019050818103600083015261174e81611712565b9050919050565b600060408201905061176a6000830185611648565b6117776020830184611648565b9392505050565b60008151905061178d816114c7565b92915050565b6000602082840312156117a9576117a861137b565b5b60006117b78482850161177e565b91505092915050565b7f5573657220686173206e6f7420617070726f76656420656e6f7567682055534460008201527f4300000000000000000000000000000000000000000000000000000000000000602082015250565b600061181c6021836116b2565b9150611827826117c0565b604082019050919050565b6000602082019050818103600083015261184b8161180f565b9050919050565b60006060820190506118676000830186611648565b6118746020830185611648565b6118816040830184611467565b949350505050565b61189281611491565b811461189d57600080fd5b50565b6000815190506118af81611889565b92915050565b6000602082840312156118cb576118ca61137b565b5b60006118d9848285016118a0565b91505092915050565b7f55534443207472616e73666572206661696c6564000000000000000000000000600082015250565b60006119186014836116b2565b9150611923826118e2565b602082019050919050565b600060208201905081810360008301526119478161190b565b9050919050565b7f496e76616c696420696e737572616e6365207479706500000000000000000000600082015250565b60006119846016836116b2565b915061198f8261194e565b602082019050919050565b600060208201905081810360008301526119b381611977565b9050919050565b7f416c7265616479206a6f696e656420696e737572616e63650000000000000000600082015250565b60006119f06018836116b2565b91506119fb826119ba565b602082019050919050565b60006020820190508181036000830152611a1f816119e3565b9050919050565b6000602082019050611a3b6000830184611602565b92915050565b7f4e6f7420656e726f6c6c656420696e20616e7920696e737572616e636520747960008201527f7065000000000000000000000000000000000000000000000000000000000000602082015250565b6000611a9d6022836116b2565b9150611aa882611a41565b604082019050919050565b60006020820190508181036000830152611acc81611a90565b9050919050565b7f4e487b7100000000000000000000000000000000000000000000000000000000600052601160045260246000fd5b6000611b0d8261145d565b9150611b188361145d565b9250828201905080821115611b3057611b2f611ad3565b5b92915050565b7f596f7520617265206e6f7420616c6c6f77656420746f20636c61696d20696e7360008201527f7572616e63650000000000000000000000000000000000000000000000000000602082015250565b6000611b926026836116b2565b9150611b9d82611b36565b604082019050919050565b60006020820190508181036000830152611bc181611b85565b9050919050565b7f4e6f7420656e6f7567682066756e647320696e2074686520636f6e7472616374600082015250565b6000611bfe6020836116b2565b9150611c0982611bc8565b602082019050919050565b60006020820190508181036000830152611c2d81611bf1565b9050919050565b6000604082019050611c496000830185611648565b611c566020830184611467565b939250505056fea26469706673582212206e38d1b32fc31ed8c42a21c09cb523088c6e51e37f7254f31c46fd4b7905125264736f6c63430008180033",
  "linkReferences": {},
  "deployedLinkReferences": {}
}